:020000040800F2
:10000000780700200101000801370008E5310008E9
:10001000D9360008790100081D43000800000000DF
:10002000000000000000000000000000A53D0008E6
:10003000950100080000000005370008A93D0008F0
:100040001B0100081B0100081B0100081B01000820
:100050001B0100081B0100081B0100081B01000810
:100060001B0100081B0100081B0100081B01000800
:100070001B0100081B0100087D0100088901000820
:100080001B0100081B0100081B0100081B010008E0
:100090001B0100081B0100081B0100081B010008D0
:1000A0001B0100081B0100081B0100081B010008C0
:1000B0001B0100081B010008B13D00081B010008DE
:1000C0001B0100081B0100081B0100081B010008A0
:1000D00061370008754200081B0100081B01000879
:1000E000550500081B0100081B010008DFF80CD0B3
:1000F00000F02AF800480047214300087807002054
:100100000648804706480047FEE7FEE7FEE7FEE7B1
:10011000FEE7FEE7FEE7FEE7FEE7FEE7AD3D00088F
:10012000ED00000840EA01039B0703D009E008C97D
:10013000121F08C0042AFAD203E011F8013B00F8AC
:10014000013B521EF9D270471CB50948009009487E
:1001500001900546009C06E0E06840F0010394E849
:10016000070098471034AC42F6D3FFF7C3FF0000F6
:10017000DC430008FC430008FEE7000040F26C107E
:10018000C2F2000000F06EBA40F22810C2F2000085
:1001900000F068BA70470000F0B540F2100EC2F2ED
:1001A000000E40F25020BEF90460C2F20000D0F808
:1001B00000C040F2082006F16402C2F2000092B2D0
:1001C0000068BEF90650BEF90840BEF90A1006EBF9
:1001D0008603C92A38BF03F2DC564FF47A72B6F5AB
:1001E0007A7F98BF16464FF4FA63B6F5FA6F28BFC8
:1001F0001E46466305F16406B6B205EB8507C92EB7
:1002000038BF07F2DC55B5F57A7F98BF1546B5F5CE
:10021000FA6F28BF1D46856304F16405ADB204EB97
:100220008406C92D38BF06F2DC54B4F57A7F98BF36
:100230001446B4F5FA6F28BF1C46C46301F1640488
:10024000A4B201EB8105C92C38BF05F2DC51B1F530
:100250007A7F98BF1146B1F5FA6F28BF194601643D
:10026000BEF90C0000F1640189B200EB8004C929D9
:1002700038BF04F2DC50B0F57A7F98BF1046B0F575
:10028000FA6F28BF1846CCF83400BEF90E0000F112
:10029000640189B200EB8004C92938BF04F2DC5044
:1002A000B0F57A7F98BF1046B0F5FA6F28BF1846B0
:1002B000CCF83800BEF9100000F1640189B200EBFF
:1002C0008004C92938BF04F2DC50B0F57A7F98BFAA
:1002D0001046B0F5FA6F28BF1846CCF83C00BEF9BE
:1002E000120000F1640189B200EB8007C92938BF10
:1002F00007F2DC50B0F57A7F98BF1046B0F5FA6F80
:1003000028BF1846CCF84000F0BD000040F21000B5
:10031000C2F200000021C0E90111C0E903117047D9
:10032000042938BF70472DE9F04740F2041E40F21F
:100330000C18C2F2000E0022C2F200088EF8002053
:1003400088F800200278AA2A40F0CB8090F801A01B
:1003500090F8029040F20212C2F2000282F800A06D
:1003600009F104028A4240F20612C2F20002118030
:1003700000F2B780013910F801C040F20312C2F256
:10038000000282F800C021F00106851E0022072726
:1003900015F8023F5A4053B25400002B48BF87EA79
:1003A000420462B26300002A48BF87EA44035AB29B
:1003B0005C00002A48BF87EA430462B26300002A57
:1003C00048BF87EA44035AB25C00002A48BF87EA64
:1003D000430462B26300002A48BF87EA44035AB26A
:1003E0005C00002A48BF87EA430462B2002A6A78A8
:1003F0004FEA440348BF87EA44035A4053B25400CB
:10040000002B48BF87EA420462B26300002A48BF5B
:1004100087EA44035AB25C00002A48BF87EA4304D3
:1004200062B26300002A48BF87EA44035AB25C0004
:10043000002A48BF87EA430462B26300002A48BF2B
:1004400087EA44035AB25C00002A48BF87EA4304A3
:1004500063B26200002B48BF87EA4402023E97D194
:10046000C90732D0A9784A4053B254000721002B63
:1004700048BF81EA420462B26300002A48BF81EAB1
:1004800044035AB25C00002A48BF81EA430462B2C6
:100490006300002A48BF81EA44035AB25C00002A84
:1004A00048BF81EA430462B26300002A48BF81EA80
:1004B00044035AB25C00002A48BF81EA430463B295
:1004C0006200002B48BF81EA4402D1B2614508D1E5
:1004D0000121BAF1010F8EF8001008BFB9F1100F19
:1004E00002D0BDE8F0477047B0F8031040F21004A6
:1004F00040F20E12C2F20004C2F20002A18011808A
:10050000B0F80510E1805180B0F80710218191808A
:10051000B0F809106181D180B0F80B10A181118170
:10052000B0F80D10E1815181B0F80F102182918156
:10053000B0F811006082D08100F0DCFA0121206067
:1005400088F8001040F20811C2F200010860BDE80E
:10055000F047704770470000EFF3108072B600BF9D
:10056000FEE70000014690F82100022816D1086835
:10057000D1E90FC3026822F00E020260026822F085
:1005800001020260012000FA03F2CCF8042081F895
:1005900021000020002281F8202070470420886379
:1005A0000120002281F820207047000090F82110DF
:1005B000022923D1026840F2040C1168C4F2020C33
:1005C00021F00E01116013682F21C4F202018A424A
:1005D00023F00103136015DD3023C4F202039A42B5
:1005E0001CD04423C4F202039A421BD05823C4F205
:1005F00002039A421CD14FF4803321E0042181632D
:10060000012070470823C4F202039A420ED01C2333
:10061000C4F202039A420BD1102311E04FF480730D
:100620000EE000BF4FF480530AE000BF012307E053
:100630000CF168014FF080738A4208BF4FF48013B9
:100640000121CCF8003080F82110416B00220029F4
:1006500080F8202004BF0020704780B58847002024
:1006600080BD000010B5D0E90FCE0168DCF8003085
:100670000A6823FA0EF35C072AD512F0040427D087
:100680000A68920603D40A6822F004020A602F2244
:10069000C4F20202914240F20402C4F202025BDDA3
:1006A0003023C4F20203994272D04423C4F20203FD
:1006B000994273D05823C4F20203994240F07A80E1
:1006C0004FF480231360C16A002940F098806FE0E6
:1006D0009C0727D512F0020424D00A68920606D49B
:1006E0000A6822F00A020A60012280F821202F22E3
:1006F000C4F20202914240F20402C4F202023BDD63
:100700003023C4F20203994260D04423C4F20203AE
:1007100099425FD05823C4F20203994260D14FF44A
:10072000003365E01B0743D512F0080208BF10BD77
:100730000A6822F00E020A60012101FA0EF2CCF8DA
:100740000420816380F82110016B0022002980F8C9
:10075000202054D12CE000BF0823C4F202039942A8
:1007600022D01C23C4F20203994223D140231360F8
:10077000C16A002943D11BE00823C4F20203994255
:100780002CD01C23C4F20203994229D120232FE04C
:100790004FF480631360C16A89BB09E04FF4804362
:1007A0001360C16A59BB03E004231360C16A31BB03
:1007B00010BD00BF02F168044FF08063A14208BF82
:1007C0004FF480031360C16AC9B9F1E74FF40073B5
:1007D0000EE000BF4FF400530AE000BF022307E021
:1007E00002F168044FF00073A14208BF4FF40013F8
:1007F0001360816A0022002980F82020D8D0BDE84B
:100800001040084790F820C0BCF1010F04BF02203F
:100810007047F0B54FF0010E80F820E090F821C04D
:10082000BCF1010F26D14FF0020C80F821C04FF02F
:10083000000CC0F838C0D0E900C4C56AC66BDCF84B
:100840000070102C27F00107CCF80070006C0EFA35
:1008500000F070600846CCF8043004BF10460A4629
:10086000CCF80800CCF80C20DCF8000045B140F0D2
:100870000E000DE0002180F820100220F0BD00BF26
:1008800020F00400CCF80000DCF8000040F00A0082
:10089000CCF80000DCF8000040F00100CCF80000CB
:1008A0000020F0BDB0B5044600F024F9054640F242
:1008B0000000C2F200000078611C18BF044400BFB1
:1008C00000F018F9401BA042FAD3B0BD2DE9F04F5B
:1008D00082B00E68002E00F0FD8041F20042C4F2AA
:1008E0000102042340F2004E904208BF03234FF65A
:1008F000FF7CC4F2010E009300240123C1F2100C0E
:100900004FF0000A4FF000094BE000BF41F2000237
:10091000C4F20102009F904208BF022704F00C03BA
:100920000F229A402BEA020207FA03F34FEA9A05D4
:100930001A4346F825204E6840F20C45F202DEF8D4
:10094000082054BF22EA080242EA0802C4F2010564
:10095000CEF808202A68B30254BF22EA080242EA0D
:1009600008022A60B303DEF8042054BF22EA08021A
:1009700042EA0802F303CEF80420DEF800204FF02C
:10098000010354BF22EA080242EA0802CEF800201E
:100990000E680AF1010A36FA0AF204F1040400F0C2
:1009A000998003FA0AFB16EA0B08F1D04E686645F7
:1009B00012DC122E56D8DFE806F0350B4D4955559E
:1009C000555555555555555555555545510000BF2B
:1009D000D1F80C9046E000BF4FF6FF72C1F2210241
:1009E00096420FDC0022C1F2110296421AD0002278
:1009F000C1F21202964215D00022C1F221029642A3
:100A000010D02FE00022C1F2220296420AD000222A
:100A1000C1F23102964205D00022C1F23202964262
:100A200020D100BF8A684AB1012A14BFC0F814B0AF
:100A3000C0F810B04FF0080914E000BF4FF00409EF
:100A400010E000BFCA6802F104090BE04FF0000992
:100A500008E000BFCA6802F1080903E0CA6802F1B1
:100A60000C0900BF02462646B8F5807F24BF043239
:100A7000203E17680F25B54027EA050509FA06F656
:100A800035431560CA79D2067FF582AF41F218036B
:100A9000C4F202031A68AEF57E7642F001021A60D3
:100AA0001A6802F001020192019A2AF0030256F834
:100AB00002B040F60002C4F20102904208D040F6B3
:100AC0000042C4F2010290427FF420AF012725E7E3
:100AD000002723E702B0BDE8F08F000080680840DF
:100AE00018BF012070470000002A08BF09040161F7
:100AF0007047000040F27030C2F20000006870479A
:100B000040F2000040F27031C2F20000C2F2000177
:100B100000780A68104408607047000080B542F20F
:100B20000000C4F20200016841F0100101600320DE
:100B300000F08CF80F2000F005F800F027F80020F6
:100B400080BD000070B540F20006C2F2000640F21F
:100B500008013278C2F200014FF47A730968B3FBDE
:100B6000F2F20446B1FBF2F1084601F04FF90F2C06
:100B70004FF0010508D838B94FF0FF302146002268
:100B8000002500F037F87460284670BD82B041F24D
:100B90001800C4F202000168022241F00101016064
:100BA000016801F0010101910199416841F0805112
:100BB0004160406800F08050009000980420C4F22A
:100BC0000100016862F31A61016002B07047000021
:100BD000002848BF704700F01F01012202FA01F10E
:100BE0001C2202EAD0004EF20012CEF20002815026
:100BF0007047000010B54EF60C5CCEF2000CDCF82D
:100C00000030C3F3022E8EF00704042C28BF042406
:100C1000BEF103034FF0FF3E0EFA04F438BF002389
:100C2000A14399400EFA03F39A43114300F00F02D7
:100C300000F160430901043A03F56443624400286B
:100C400048BF02F10C03197010BD00004EF60C51A4
:100C5000CEF200010A684FF6FF031A4060F30A2241
:100C600042F0806040F0FD7008607047002804BFCB
:100C7000012070472DE9F04381B042F20008C4F230
:100C800002080446D8F800000D4600F00700814233
:100C90000CD9D8F8000020F007002843C8F800005D
:100CA000D8F8000000F00700A8426CD1206841F29B
:100CB00004098107C4F2020917D5410705D5D9F8FF
:100CC000001041F4E061C9F80010010705D5D9F81A
:100CD000001041F46051C9F80010D9F80010A26862
:100CE00021F0F0011143C9F80010C00742D1D8F833
:100CF000000000F0070085420CD2D8F8000020F078
:100D000007002843C8F80000D8F8000000F00700EA
:100D1000A84238D12068410707D5D9F80010E26809
:100D200021F4E0611143C9F80010000708D5D9F893
:100D30000000216920F4605040EAC100C9F80000B9
:100D4000D9F8002002F00C00082841F20020C0F27F
:100D50007A004DD144F2CA33C2F38341C0F6000396
:100D6000595CD20338D440F60010C0F23D0048432D
:100D70003EE000BF606859F8041C022808D0012832
:100D800026D1890306D4012001B0BDE8F08300BF5D
:100D90008901F8D5D9F8001021F003010843C9F8FA
:100DA0000000FFF7A7FE064641F28837D9F8000099
:100DB000616800F00C00B0EB810F98D0FFF79AFE4D
:100DC000801BB842F2D9032001B0BDE8F08300BF18
:100DD0008907D8D5DEE700BFD9F8002044F2C83330
:100DE000C2F34042C0F600039A5C4843B0FBF2F005
:100DF000D9F8001044F2B832C1F30311C0F6000272
:100E0000515C40F2080220FA01F140F20400C2F203
:100E100000000068C2F200021160FFF793FE00209C
:100E200001B0BDE8F0830000002804BF0120704736
:100E30002DE9F04182B00446007841F20006C00777
:100E4000C4F202060CD0706800F00C00042840F0D8
:100E500081803068800303D56068002800F04681F7
:100E6000207880071BD5706810F00C0F09D07068CF
:100E700000F00C00082840F087807068C00300F183
:100E800083803068800703D52069012840F02E81D7
:100E90003068616920F0F80040EAC10030602078D5
:100EA000000713D4207840072CD4E569002D00F00A
:100EB0001881706800F00C00082840F0A780012D10
:100EC00040F00481012002B0BDE8F081A069002853
:100ED00000F084800020C4F242200121C0F8801478
:100EE000FFF708FE054600BF706A800700F1B28078
:100EF000FFF700FE401B0228F6D9032002B0BDE830
:100F0000F08100BFF0695FEAC00808D4F06940F0E2
:100F10008050F061F06900F080500090009847F236
:100F20000007C4F200073868C00549D4386840F4A7
:100F300080703860FFF7DEFD054600BF3868C005E9
:100F40003ED4FFF7D7FD401B6428F7D9032002B039
:100F5000BDE8F081706800F00C00082803D17068CB
:100F6000C0033FF576AF61683068002900F00C815E
:100F7000B1F5A02F00F00081B1F5803F40F01A815B
:100F800040F480301CE100BF2069002840F20000DE
:100F9000C4F2422000F0888001210160FFF7AAFD21
:100FA000054600BF306880073FF572AFFFF7A2FD2E
:100FB000401B0228F6D9032002B0BDE8F08100BF33
:100FC000E168306A002900F09D80052900F09280D8
:100FD000012940F0AF8040F00100B1E00020C4F2F0
:100FE00042200021C0F88014FFF784FD054600BFB1
:100FF000706A80077FF556AFFFF77CFD401B022823
:10100000F6D9032002B0BDE8F08100BF0027C4F28A
:10101000422700203866FFF76DFD022D05460DD1F1
:101020003068800140F1DE80FFF764FD401B02283C
:101030004FF00300F4D902B0BDE8F08130688001C0
:101040004FD5FFF757FD401B02284FF00300F5D99D
:10105000F1E700BF40F20800C2F20000006844F669
:10106000D351C1F26201A0FB0101480A019000BF07
:1010700000BF0198411E002801913FF413AF00BF4B
:101080000198411E002801913FF40CAF00BF019868
:10109000411E002801913FF405AF00BF0198411E99
:1010A00000280191E4D1FDE600210160FFF722FD57
:1010B000054600BF306880077FF5F1AEFFF71AFDE7
:1010C000401B02284FF00300F4D9B4E77068216A8E
:1010D00000F480328A4209D1616A00F470108842BB
:1010E00004D1002002B0BDE8F08100BF012002B0B1
:1010F000BDE8F08140F004003062306A40F0010049
:101100001EE000BF20F001003062306A20F00400D1
:101110003062FFF7EFFC054641F28837306A8007FE
:1011200020D5FFF7E7FC401BB8424FF00300F5D98C
:1011300081E700BF20F001003062306A20F0040037
:101140003062FFF7D7FC054641F28837306A8007E6
:1011500008D4FFF7CFFC401BB842F7D9032002B0F8
:10116000BDE8F081B8F1000F3FF59FAEF06920F0C7
:101170008050F06199E600BF40F480203060306814
:1011800040F480301CE000BF20F4803030603068D4
:1011900020F480203060FFF7ADFC05463068800306
:1011A0007FF55EAEFFF7A6FC401B64284FF00300FE
:1011B000F4D940E720F480303060306820F480209B
:1011C0003060FFF797FC0546306880033FF548AE76
:1011D000FFF790FC401B6428F6D9032002B0BDE85D
:1011E000F08100BF206AB0F5803F05D17168A26828
:1011F00021F40031114371607168626A21F4741145
:1012000011430843706001203866FFF773FC044601
:10121000306880013FF565AFFFF76CFC001B0228CA
:101220004FF00300F4D906E7002804BF01207047FF
:1012300010B5022180F85110016804460A6822F0B6
:1012400040020A6000F0E6F80020606584F8510072
:1012500084F8500010BD000070470000B0B584B0A5
:1012600001684A688B6803F04105012D08D112F02E
:10127000400505D0016C04B0BDE8B040084700BF90
:101280009D0707D512F0800504D0416C04B0BDE87D
:10129000B040084713F0600F18BF12F0200501D1CD
:1012A00004B0B0BD5D0618D590F85150032D09D19A
:1012B00000200290C868029088680290029804B0EA
:1012C000B0BD00BF456D45F004054565002503959B
:1012D000CD6803958D680395039D9B060CD5436DE2
:1012E00043F001034365002301938B6801930B686E
:1012F00023F040030B60019B436D002BD0D04B6863
:10130000920723F0E0034B604FF0010380F8513067
:1013100026D04A6843F6D91422F003024A60C16C11
:10132000C0F6000459B1054608464C63FFF73EF984
:101330000146284619B1416D41F040014165816C7B
:101340000029ADD04C6304460846FFF72FF900286A
:10135000A6D0606D40F04000606504B0B0BD00BF35
:1013600004B0BDE8B040FFF777BF000070B528B10A
:10137000416A29B100210161142106E0012070BDFC
:101380004168B1F5827F02D01C2100224250002624
:10139000866290F8511029B980F85060054600F037
:1013A0003BF82846022180F8511090E82E0002F404
:1013B00082720C6803F4044324F040040C601A4465
:1013C00005F4006305691A4405F0020345691A44EF
:1013D00005F001038569C4691A4405F400731A44D1
:1013E00004F03803046A1A4404F08003846A1A4340
:1013F00004F400531A430A60042202EA15424A60C8
:10140000CA6922F40062CA610121466580F8511060
:10141000304670BD704700007047000090F85130B2
:10142000012B1CBF02207047B0B5D0F808E0BEF118
:10143000000F49D14368B3F5827F45D1042380F87A
:10144000513090F85130042B01D0012B4BD10029A1
:101450004FF0010318BF002A3CD084461CF8503FCF
:10146000012B40D0012380F8503090F8513043F2E6
:101470009D7E042B1CBF052380F85130002343655B
:1014800001638286C28681638287C287C26843F213
:101490006D73C0F6000EC0F60003002A43F2D1724D
:1014A000016808BF734643F6010EC0F60002C0F69D
:1014B000000E08BF7246C0E91032086840064FF0BF
:1014C000E0003FD542E000BF00294FF0010318BF04
:1014D000002A03D1BDE8B0401846704784461CF886
:1014E000503F012B04D10223BDE8B040184670479D
:1014F000042380F851300023436581638287C287CB
:1015000003638386C386C26843F6E515016843F624
:101510000524C0F60005002AC0F6000408BF2546D1
:10152000BEF5004FC0E9105307D1086820F0400015
:101530000860086820F480400860086840064FF0A2
:10154000600003D40A6842F040020A6000238CF86D
:1015500000304A6810434860BDE8B0401846704704
:10156000AFF30080006843F60001C4F20001884236
:1015700018BF7047F0B581B040F22407C2F20007EF
:10158000F86807F164067ECE0130F86007F130009C
:101590003EC0B7F87C0097F864E097F865C0A7F8FC
:1015A0004800BEF1AA0F4FF000007E6408BFBCF1F6
:1015B000010F05D197F866001038B0FA80F04009A5
:1015C000002207230021F870B81890F864406140A9
:1015D0004CB24D00002C48BF83EA410569B26C0053
:1015E000002948BF83EA450461B26500002948BF6D
:1015F00083EA440569B26C00002948BF83EA4504C8
:1016000061B26500002948BF83EA440569B26C00F5
:10161000002948BF83EA450461B26500002948BF3C
:1016200083EA44056CB26900002C48BF83EA450197
:10163000182A35D090F865000232484041B2440083
:10164000002948BF83EA400460B26100002848BF17
:1016500083EA440148B24C00002848BF83EA4104B1
:1016600060B26100002848BF83EA440148B24C00E0
:10167000002848BF83EA410460B26100002848BFE7
:1016800083EA440148B24C00002848BF83EA410481
:1016900060B26100002848BF83EA440194E700BFBC
:1016A000B97097F86600BEF1AA0F08BFBCF1010F30
:1016B0000AD0BCF1AA0F0BD197F86710012809D105
:1016C000102911D101210CE1102801D1002108E1DC
:1016D00097F86710AA2807D197F86800012905D163
:1016E00010280DD10221FCE097F86800AA2907D143
:1016F00097F86910012805D110290DD10321F0E0D8
:1017000097F86910AA2807D197F86A00012905D12E
:1017100010280DD10421E4E097F86A00AA2907D126
:1017200097F86B10012805D110290DD10521D8E0BB
:1017300097F86B10AA2807D197F86C00012905D1FA
:1017400010280DD10621CCE097F86C00AA2907D10A
:1017500097F86D10012805D110290DD10721C0E09F
:1017600097F86D10AA2807D197F86E00012905D1C6
:1017700010280DD10821B4E097F86E00AA2907D1EE
:1017800097F86F10012805D110290DD10921A8E083
:1017900097F86F10AA2807D197F87000012905D192
:1017A00010280DD10A219CE097F87000AA2907D1D2
:1017B00097F87110012805D110290DD10B2190E067
:1017C00097F87110AA2807D197F87200012905D15E
:1017D00010280DD10C2184E097F87200AA2907D1B6
:1017E00097F87310012805D110290DD10D2178E04B
:1017F00097F87310AA2807D197F87400012905D12A
:1018000010280DD10E216CE097F87400AA2907D199
:1018100097F87510012805D110290DD10F2160E02E
:1018200097F87510AA2807D197F87600012905D1F5
:1018300010280DD1102154E097F87600AA2907D17D
:1018400097F87710012805D110290DD1112148E012
:1018500097F87710AA2807D197F87800012905D1C1
:1018600010280DD112213CE097F87800AA2907D161
:1018700097F87910012805D110290DD1132130E0F6
:1018800097F87910AA2807D197F87A00012905D18D
:1018900010280DD1142124E097F87A00AA2907D145
:1018A00097F87B10012805D1102907D1152118E0E0
:1018B00097F87B10AA2808BF01290BD0AA290FD1BD
:1018C00097F87C0001280BD197F87D00102807D1EC
:1018D000172106E097F87C00102801D1162100E0BE
:1018E000FF2140F20C00C2F2000001700021B9712A
:1018F000F9713972C7F84A10C7F84E10C7F852107C
:10190000C7F85610C7F85A10C7F85E10A7F862104B
:101910000178FF2900F0A68102784F215143CB0ABC
:101920001A2103FB1122D3B207F16402D35C87F8BA
:101930004A3003785E1C40F6D91306FB03F52D0CE4
:1019400005FB1166B6B2965D87F84B6006780236E5
:1019500006FB03F52D0C05FB1166B6B2965D87F804
:101960004C600678033606FB03F52D0C05FB11666B
:10197000B6B2965D87F84D600678043606FB03F52F
:101980002D0C05FB1166B6B2965D87F84E600678A1
:10199000053606FB03F52D0C05FB1166B6B2965D08
:1019A00087F84F600678063606FB03F52D0C05FB1D
:1019B0001166B6B2965D87F850600678073606FB6A
:1019C00003F52D0C05FB1166B6B2965D87F85160E4
:1019D0000678083606FB03F52D0C05FB1166B6B23A
:1019E000965D87F852600678093606FB03F52D0CE4
:1019F00005FB1166B6B2965D87F8536006780A3625
:101A000006FB03F52D0C05FB1166B6B2965D87F853
:101A1000546006780B3606FB03F52D0C05FB1166AA
:101A2000B6B2965D87F8556006780C3606FB03F56E
:101A30002D0C05FB1166B6B2965D87F856600678E8
:101A40000D3606FB03F52D0C05FB1166B6B2965D4F
:101A500087F8576006780E3606FB03F52D0C05FB5C
:101A60001166B6B2965D87F8586006780F3606FBA9
:101A700003F52D0C05FB1166B6B2965D87F859602B
:101A80000678103606FB03F52D0C05FB1166B6B281
:101A9000965D87F85A600678113606FB03F52D0C23
:101AA00005FB1166B6B2965D87F85B600678123664
:101AB00006FB03F52D0C05FB1166B6B2965D87F8A3
:101AC0005C600678133606FB03F52D0C05FB1166EA
:101AD000B6B2965D87F85D600678143606FB03F5AE
:101AE0002D0C05FB1166B6B2965D87F85E60067830
:101AF000153606FB03F52D0C05FB1166B6B2965D97
:101B000087F85F600678163606FB03F52D0C05FB9B
:101B10001166B6B2965D87F860600678173606FBE8
:101B200003F52D0C05FB1166B6B2965D87F8616072
:101B30000678183606FB03F52D0C05FB1166B6B2C8
:101B4000965D87F862600078193043431B0C03FBF5
:101B5000110080B2105C87F8630097F84A00AA2849
:101B600009D197F84B00012805D197F84C001028AF
:101B700004BF0120B8710020072100233A1892F811
:101B80004A6073405EB25D00002E48BF81EA4305A3
:101B90006BB26E00002B48BF81EA450673B2750038
:101BA000002B48BF81EA46056BB26E00002B48BF90
:101BB00081EA450673B27500002B48BF81EA4605ED
:101BC0006BB26E00002B48BF81EA450673B2750008
:101BD000002B48BF81EA46056EB26B00002E48BF5D
:101BE00081EA4503182835D092F84B2002305A403C
:101BF00053B25600002B48BF81EA420672B273000E
:101C0000002A48BF81EA46035AB25E00002A48BF54
:101C100081EA430672B27300002A48BF81EA460394
:101C20005AB25E00002A48BF81EA430672B27300CE
:101C3000002A48BF81EA46035AB25E00002A48BF24
:101C400081EA430672B27300002A48BF81EA460364
:101C500094E700BF3B72387A97F86310884204BF5C
:101C60000120F87197F86400AA2840F09F8097F847
:101C70006500012840F09A8097F86600102840F02F
:101C800095800020072100233A1892F86460734081
:101C90005EB25D00002E48BF81EA43056BB26E0064
:101CA000002B48BF81EA450673B27500002B48BF80
:101CB00081EA46056BB26E00002B48BF81EA4506FB
:101CC00073B27500002B48BF81EA46056BB26E0007
:101CD000002B48BF81EA450673B27500002B48BF50
:101CE00081EA46056EB26B00002E48BF81EA4503CB
:101CF000182835D092F8652002305A4053B2560069
:101D0000002B48BF81EA420672B27300002A48BF26
:101D100081EA46035AB25E00002A48BF81EA4306C0
:101D200072B27300002A48BF81EA46035AB25E00CD
:101D3000002A48BF81EA430672B27300002A48BFF6
:101D400081EA46035AB25E00002A48BF81EA430690
:101D500072B27300002A48BF81EA460394E700BFCD
:101D600097F87D00D9B2814220D140F22610C2F20C
:101D700000000121017040F21E10C2F2000000219B
:101D8000017038691A210130386107F16400FEF7EB
:101D9000C7FAFEF701FAB86A0130B86240F22010C3
:101DA000C2F2000001680131016022E040F2261019
:101DB000C2F200000021017040F21E11C2F20001C7
:101DC00001200870796945F6294201317961796904
:101DD000CCF28F2251434AF614624FEAF101C0F26D
:101DE0004712914205D83979013101F00301397167
:101DF000787140F2B01007F16401C2F200001A22BB
:101E000001B0BDE8F040FFF709BB0000411E002013
:101E1000B0EB116F1CBF012070474EF21002CEF2E2
:101E2000000251604EF62351CEF20001F0230B70F8
:101E300007219060116070477047000070470000F4
:101E400090F83C20012A4FF0020236D010B580F8FD
:101E50003D200268D2F804E0D2F808C00C682EF0E9
:101E60007003234340F2FF74C4F20004A2425360A3
:101E70000ADCB2F1804F13D040F20043C4F20003F9
:101E80009A420DD011E000BF42F60043C4F20103B4
:101E90009A4205D040F60003C4F200039A4204D1EE
:101EA00049682CF08003194391600121002280F8D9
:101EB0003D1080F83C20BDE81040104670470000FF
:101EC000002804BF0120704710B590F83D1031B9CB
:101ED000002180F83C10044600F070F820460221F2
:101EE00080F83D10016840F2FF740B68C4F20004F2
:101EF00042F6004CA142C4F2010C15DCB1F1804F56
:101F00001AD040F20042C4F20002914214D0A14221
:101F100018DCB1F1804F1DD040F20042C4F2000243
:101F2000914217D01AE000BF614505D040F600028B
:101F3000C4F200029142EAD1826823F07003134395
:101F4000A142E6DD614505D040F60002C4F2000280
:101F5000914203D1026923F440731343846923F04F
:101F60008002D0F804E0C368224361450A60CB6276
:101F7000C1F828E002D14269CCF8302001224A6140
:101F80000B69DB0703D00B6923F001030B6180F8B9
:101F9000462080F83E2080F83F2080F8402080F8DE
:101FA000412080F8422080F8432080F8442080F8C7
:101FB000452080F83D20002010BD000080B584B091
:101FC000006840F60001C4F20001884228D040F2C7
:101FD0000041C4F20001884212D0B0F1804F1CD100
:101FE00041F21C00C4F20200016841F001010160ED
:101FF000006800F001000390039804B080BD00BFAA
:1020000041F21C00C4F20200016841F002010160CB
:10201000006800F002000290029804B080BD00BF8A
:1020200041F21C00C4F202000168002241F00401E8
:1020300001600068062100F00400019001981E2054
:10204000FEF7D8FD1E2004B0BDE88040FEF7C0BDFD
:1020500090F83C20012A4FF002026CD080B580F845
:102060003D20D0F800C04FF67772DCF8083023EA44
:102070000202CCF808200B684F2B29DC1F2B45DD12
:10208000202B46D0302B44D0402B40F0AF80D1F8ED
:1020900004E0C968DCF82030DCF8202022F00102DE
:1020A000CCF82020DCF8182022F0F00242EA0111DE
:1020B00023F00A0242EA0E02CCF81810CCF82020D5
:1020C000DCF8081041F0470121F0300128E000BFA2
:1020D0006F2B33DDB3F5005F74D0B3F5805F21D093
:1020E000702B40F08380D1E901E3C968DCF8082057
:1020F00043EA0E0322F47F4243EA01211143CCF864
:102100000810DCF8081041F0770109E00BB1102B42
:102110006CD1DCF8081021F07001194341F007017F
:10212000CCF808100022012180F83D10002180F831
:102130003C10BDE880401046704700BF502B21D0B6
:10214000602B53D1D1F804E0C968DCF82030DCF80A
:10215000202022F01002CCF82020DCF8182022F4F5
:10216000704242EA013123F0A00242EA0E12CCF89A
:102170001810CCF82020DCF8081041F0670121F09D
:102180001001CDE7D1F804E0C968DCF82030DCF8B4
:10219000202022F00102CCF82020DCF8182022F0C8
:1021A000F00242EA011123F00A0242EA0E02CCF8E0
:1021B0001810CCF82020DCF8081041F0570121F06D
:1021C0002001ADE7D1E901E3C968DCF8082043EA62
:1021D0000E0322F47F4243EA01211143CCF8081098
:1021E000DCF8081041F480419AE700BF01229AE729
:1021F0007047000070B504460068C5680669B107FD
:1022000016D515F0020113D06FF002010161012112
:1022100021778069800703D02046FFF7E9FF05E0BA
:10222000204600F0FDF8204600F07EFA00202077DE
:10223000700719D515F0040016D020686FF004015E
:10224000016102212177806910F4407F04D020468B
:10225000FFF7CEFF06E000BF204600F0E1F8204681
:1022600000F062FA00202077300717D515F008003B
:1022700014D020686FF00801016104212177C06942
:10228000800703D02046FFF7B3FF05E0204600F0AB
:10229000C7F8204600F048FA00202077F00619D54C
:1022A00015F0100016D020686FF0100101610821B0
:1022B0002177C06910F4407F04D02046FFF798FFD3
:1022C00006E000BF204600F0ABF8204600F02CFAF4
:1022D00000202077F00718BF15F0010002D130066A
:1022E00009D412E020686FF001010161204600F07E
:1022F0008BFA300609D515F0800006D020686FF003
:10230000800101612046FFF797FD700609D515F0A1
:10231000400006D020686FF040010161204600F0C7
:1023200075FAB00658BF70BD15F0200008D02168BE
:102330006FF0200220460A61BDE87040FFF77EBDC5
:1023400070BD000080B586B0006840F2FF71C4F235
:10235000000188424FF00001CDE90411CDE90211DE
:1023600014DCB0F1804F29D040F20041C4F20001EA
:10237000884253D141F21800C4F20200016841F0D2
:10238000040101600068C02122E000BF40F60001A6
:10239000C4F20001884225D042F60041C4F2010196
:1023A00088423BD141F21800C4F20200016841F0BA
:1023B0000401016000684FF4706109E041F2180007
:1023C000C4F20200016841F00401016000680F21BD
:1023D00000F004000190019840F60000C4F20100F2
:1023E00015E000BF41F21800C4F20200016841F09C
:1023F0000801016000684FF4707100F0080001905E
:10240000019840F60000C4F2010000F580600291DE
:1024100002210391059102A9FEF758FA06B080BD8A
:102420007047000090F83C30012B04BF0220704739
:102430004FEAB202032A00F2F1802DE9F043DFE80F
:1024400002F003A53B7500BF036842F600461D6A13
:102450001A6AC4F2010622F001021A621A465C6886
:1024600052F818CFB3428E68D1F800E025F002058B
:1024700045EA06050CD1CE68D1E9057824F440740C
:1024800025F00C0526F004063C43354344EA0804D5
:102490002CF0730747EA0E075C609F614F6809697B
:1024A0005F631D629F6947F008079F619F6927F07E
:1024B00004079F61A6E000BF036842F600461D6A5C
:1024C0001A6AC4F2010622F480721A621A46D3F81C
:1024D00004C052F81CEFB3428E680C6825F40075F6
:1024E00045EA06250FD1CE68D1E90598360240F2BB
:1024F000FF4725F44065BE4335432CF4405748EA76
:10250000090647EA061C2EF073072743C3F804C0E8
:10251000DF614F680969DF631D62DF6947F0080703
:10252000DF61DF6927F00407DF616BE0036842F6D3
:102530000047D3F820C01A6AC4F2010722F480527F
:102540001A621A465C6852F81C5FD1F800E08E6887
:10255000BB4204D14F6924F4804444EA87142CF42C
:10256000005747EA063725F4E64646EA0E265C6041
:10257000DE614E6809691E641F62DF6947F4006707
:10258000DF61DF6927F48067DF613AE0036842F6C4
:1025900000461D6A1A6AC4F2010622F010021A628D
:1025A0001A46D3F804C052F8184FB3428E68D1F8D7
:1025B00000E025F0200545EA06150FD1CE68D1E9E7
:1025C00005986FF0400725F0C00507EA0616354369
:1025D0002CF4406748EA090647EA860C24F4E644EE
:1025E00044EA0E27C3F804C09F614F6809699F63DE
:1025F0001D629F6947F400679F619F6927F48067A8
:102600009F6109021368194311600021BDE8F0437E
:10261000002280F83C200846704700BF01210022BC
:1026200080F83C2008467047002804BF012070470E
:1026300010B590F83D1031B9002180F83C100446E7
:1026400000F070F82046022180F83D10016840F249
:10265000FF740B68C4F2000442F6004CA142C4F2BD
:10266000010C15DCB1F1804F1AD040F20042C4F2E7
:102670000002914214D0A14218DCB1F1804F1DD06C
:1026800040F20042C4F20002914217D01AE000BFAB
:10269000614505D040F60002C4F200029142EAD141
:1026A000826823F070031343A142E6DD614505D043
:1026B00040F60002C4F20002914203D1026923F401
:1026C00040731343846923F08002D0F804E0C368A8
:1026D000224361450A60CB62C1F828E002D1426919
:1026E000CCF8302001224A610B69DB0703D00B696B
:1026F00023F001030B6180F8462080F83E2080F82B
:102700003F2080F8402080F8412080F8422080F867
:10271000432080F8442080F8452080F83D200020A8
:1027200010BD00007047000070470000C1B10429CF
:1027300008D0082914BF41224022825C012A05D01A
:1027400016E000BF3F22825C012A11D10222082933
:1027500010D0042914BF80F8412080F83F200BE0FE
:1027600090F83E20012A03D1022280F83E2003E0A7
:102770000120704780F84020006801F01F0101220D
:10278000036A8A4023EA02010162036A42F6444175
:10279000C4F201011A43A1F14403984202620FD02E
:1027A00040F2FF71C4F20001884213DCB0F1804FA7
:1027B0001CD040F20041C4F20001884216D01CE057
:1027C0000A6842F400420A6040F2FF71C4F200015C
:1027D0008842EBDD42F60041C4F20101884205D097
:1027E00040F60001C4F20001884206D1816801F080
:1027F0000701062904BF00207047016841F001016C
:102800000160002070470000704700007047000022
:102810007047000010B504460068416994F84120F3
:10282000212A56D111F0800153D000BF206850E812
:10283000050F216820F0800041E80502DAB1206828
:1028400050E8050F216820F0800041E8050292B1B0
:10285000206850E8050F216820F0800041E805025B
:102860004AB1206850E8050F216820F0800041E857
:102870000502002ADAD1A06B002818BFFDF772FE0E
:10288000206850E8030F216820F0C00041E80302EF
:10289000DAB1206850E8030F216820F0C00041E859
:1028A000030292B1206850E8030F216820F0C000B5
:1028B00041E803024AB1206850E8030F216820F084
:1028C000C00041E80302002ADAD1202084F8410048
:1028D0002068406994F84210222940F0A78010F047
:1028E000400000F0A38000BF206850E8050F216879
:1028F00020F0400041E80502DAB1206850E8050FF9
:10290000216820F0400041E8050292B1206850E8BB
:10291000050F216820F0400041E805024AB1206817
:1029200050E8050F216820F0400041E80502002A28
:10293000DAD1E06B002818BFFDF714FE206850E8DC
:10294000030F216820F4907041E80302BAB32068B5
:1029500050E8030F216820F4907041E8030272B33D
:10296000206850E8030F216820F4907041E80302CA
:102970002AB3206850E8030F216820F4907041E8E2
:102980000302002ADAD11AE0206850E8050F216816
:1029900020F0010041E80502DAB1206850E8050F97
:1029A000216820F0010041E8050292B1206850E85A
:1029B000050F216820F0010041E805024AB12068B6
:1029C00050E8050F216820F0010041E80502002AC7
:1029D000DAD1206B012824D1206850E8030F216848
:1029E00020F0100041E80302DAB1206850E8030F3C
:1029F000216820F0100041E8030292B1206850E8FD
:102A0000030F216820F0100041E803024AB120685A
:102A100050E8030F216820F0100041E80302002A6B
:102A2000DAD1202084F8420000202063002010BD6D
:102A300070470000B0B582B001680A68CC684B6985
:102A400002F02F05202D04F0200505D125B102B09C
:102A5000BDE8B04001F08EBB5FEA027C1EBF03F010
:102A6000010E04F4907313EB0E0341D1036BD506F2
:102A700018D5012B16D114F0100313D000220192A7
:102A80000A6801924A680192019A496949064BD441
:102A9000818DC28DC38D002B18BF914240F0F4810F
:102AA00002B0B0BD13062DD514F080032AD090F8E3
:102AB0004120212AF4D18268B2F5805F03D10269F6
:102AC000002A00F06782026A531C036212784A608F
:102AD000C28C013A1304C284E2D1C86820F080009D
:102AE000C860C86840F04000C86002B0B0BD00BF18
:102AF000D30718BF14F4807340F0D080530700F15F
:102B0000D380D8E05206CBD514F04002C8D0CA68B2
:102B100022F04002CA60202180F8411002B0BDE8D6
:102B2000B04000F05BBB00BFC16B0A68526893B253
:102B3000002BB5D0858DAB42B2D2C28589692029E0
:102B400000F0A180016851E8031F026821F4807140
:102B500042E80313DBB1016851E8031F026821F466
:102B6000807142E8031393B1016851E8031F0268C2
:102B700021F4807142E803134BB1016851E8031F4F
:102B8000026821F4807142E80313002BDAD1016856
:102B900051E8051F026821F0010142E80513C3B3A3
:102BA000016851E8051F026821F0010142E80513A0
:102BB0007BB3016851E8051F026821F0010142E87A
:102BC000051333B3016851E8051F026821F00101C4
:102BD00042E80513002BDAD11BE000BF016851E881
:102BE000051F026821F0400142E80513DBB10168CE
:102BF00051E8051F026821F0400142E8051393B136
:102C0000016851E8051F026821F0400142E8051300
:102C10004BB1016851E8051F026821F0400142E80C
:102C20000513002BDAD1202180F842100021016326
:102C3000016851E8031F026821F0100142E8031304
:102C4000DBB1016851E8031F026821F0100142E87E
:102C5000031393B1016851E8031F026821F01001CA
:102C600042E803134BB1016851E8031F026821F0E9
:102C7000100142E80313002BDAD1C16B0446084669
:102C8000FDF770FC204602214163818DC28D891AB7
:102C900089B202B0BDE8B040FFF7BABD436C43F063
:102CA00001034364530706D5BEF1000F03D0436C04
:102CB00043F002034364930706D5BEF1000F03D02F
:102CC000436C43F004034364BCF1000F06D55EEA95
:102CD000050303D0436C43F008034364436C002BAB
:102CE0003FF4DEAE920605D525B1044601F042FA66
:102CF000216820464969426C01F0400102F0080257
:102D0000891800F0B98000BF016851E8031F02680C
:102D100021F4907142E80313BBB3016851E8031F2B
:102D2000026821F4907142E8031373B3016851E81B
:102D3000031F026821F4907142E803132BB301686A
:102D400051E8031F026821F4907142E80313002B3D
:102D5000DAD11AE0016851E8051F026821F001018B
:102D600042E80513DBB1016851E8051F026821F054
:102D7000010142E8051393B1016851E8051F02689B
:102D800021F0010142E805134BB1016851E8051F2C
:102D9000026821F0010142E80513002BDAD1016B32
:102DA000012924D1016851E8031F026821F01001B4
:102DB00042E80313DBB1016851E8031F026821F008
:102DC000100142E8031393B1016851E8031F026840
:102DD00021F0100142E803134BB1016851E8031FD1
:102DE000026821F0100142E80313002BDAD1202100
:102DF00080F842100021016301684969490640F1E9
:102E0000C380016851E8051F026821F0400142E8D3
:102E10000513DBB1016851E8051F026821F040018C
:102E200042E8051393B1016851E8051F026821F0DB
:102E3000400142E805134BB1016851E8051F0268E3
:102E400021F0400142E80513002BDAD1C16B0029C3
:102E500000F09A8043F6BD52C0F6000204460846D0
:102E60004A63FDF7A3FB00283FF41AAEE06B416B09
:102E700002B0BDE8B04008470446FFF7D9FD002086
:102E8000606402B0B0BD00BF891A00BF026852E89A
:102E9000032F036822F4907243E80325BDB3026850
:102EA00052E8032F036822F4907243E8032575B3B8
:102EB000026852E8032F036822F4907243E8032566
:102EC0002DB3026852E8032F036822F4907243E89E
:102ED0000325002DDAD11AE0026852E8052F0368B5
:102EE00022F0010243E80525DDB1026852E8052F12
:102EF000036822F0010243E8052595B1026852E813
:102F0000052F036822F0010243E805254DB1026850
:102F100052E8052F036822F0010243E80525002D41
:102F2000DAD1202280F8422000220263026852E8AF
:102F3000032F036822F0100243E80325DDB1026885
:102F400052E8032F036822F0100243E8032595B1ED
:102F5000026852E8032F036822F0100243E80325B9
:102F60004DB1026852E8032F036822F0100243E8D3
:102F70000325002DDAD1022289B2426302B0BDE8F6
:102F8000B040FFF745BC00BF02B0BDE8B040FFF75E
:102F90004FBD00BF026A32F8023B6FF35F234B6004
:102FA000026295E590F84230202B0BD194460A46F8
:102FB00000294FF0010118BFBCF1000F06D10846EF
:102FC000704700BF02210846704700BF70B582B04D
:102FD0000025222105638262A0F82CC0456480F898
:102FE00042100168C36B43F6457444F2A50E43F6E4
:102FF000C956C0F60004C0F6000EC0F60006C3E9CC
:103000000A4EC3E90C650431044618466346FDF7D1
:10301000F9FB0195216820460A68019249680191EF
:103020000199216931B300BF016851E8031F0268AB
:1030300041F4807142E80313E3B1016851E8031FD2
:10304000026841F4807142E803139BB1016851E8C2
:10305000031F026841F4807142E8031353B1016811
:1030600051E8031F026841F4807142E80313002B0A
:10307000DAD100BF016851E8051F026841F0010183
:1030800042E80513BBB3016851E8051F026841F02F
:10309000010142E8051373B3016851E8051F026896
:1030A00041F0010142E805132BB3016851E8051F07
:1030B000026841F0010142E80513002BDAD11AE061
:1030C000016851E8051F026841F0400142E805131C
:1030D000DBB1016851E8051F026841F0400142E898
:1030E000051393B1016851E8051F026841F04001E2
:1030F00042E805134BB1016851E8051F026841F031
:10310000400142E80513002BDAD1002002B070BD67
:10311000704700007047000090F84130202B09D123
:10312000944600294FF0010218BFBCF1000F05D1F1
:103130001046704702221046704700BF70B500224B
:1031400021230162A0F824C0A0F826C0426480F8C0
:1031500041300468836B44F2BD0E44F26D1543F6B2
:10316000C956C0F6000EC0F60005C0F60006C3E959
:103170000AE5C3E90C62221D044618466346FDF7C2
:1031800041FB216820466FF040020A60016851E867
:10319000051F026841F0800142E80513DBB10168B8
:1031A00051E8051F026841F0800142E8051393B120
:1031B000016851E8051F026841F0800142E80513EB
:1031C0004BB1016851E8051F026841F0800142E8F7
:1031D0000513002BDAD1002070BD000070470000FD
:1031E00070470000FEE700004178202940F2A4016A
:1031F000C2F2000148D18278402A45D1C2780379D1
:1032000063F30B224A834279837963F30B228A8327
:10321000C279037A63F30B22CA83427A837A63F317
:103220000B220A84C27A037B63F30B224A84427B1B
:10323000837B63F30B228A84C27B037C63F30B22C0
:10324000CA84427C837C63F30B220A85C27C037DA3
:1032500063F30B224A85427D837D63F30B228A85CB
:10326000C27D037E63F30B22CA85427E837E63F3B5
:103270000B220A86C27E037F63F30B224A86427FBB
:10328000807F60F30B228A8640F228303631C2F20A
:1032900000002022FFF740BF70B586B0002541F244
:1032A0001800CDE90455CDE90255C4F202000168C9
:1032B00040F6000441F0100101600168C4F201040D
:1032C00001F01001019101990168002241F02001F3
:1032D00001600168302601F0200101910199016827
:1032E00041F0040101600068302100F00400019009
:1032F00001982046FDF7F8FB0120CDE903050220E7
:10330000059002A920460296FDF7E0FA06B070BDCE
:1033100080B588B040F2082042F600420021C2F297
:103320000000C4F20102472344F61F6CCDE90611E8
:10333000CDE90411C0E90023C0E9021C01618161EB
:10334000FEF7BEFD002818BFFDF706F940F2082081
:10335000C2F20000FFF768F9002818BFFDF7FCF87B
:103360006020019040F2DC50029000200390059014
:1033700040F20820C2F2000001A90022FFF752F833
:10338000002818BFFDF7E8F840F20820C2F200005C
:1033900001A90422FFF746F8002818BFFDF7DCF862
:1033A00040F20820C2F2000001A90822FFF73AF813
:1033B000002818BFFDF7D0F840F20820C2F2000044
:1033C00001A90C22FFF72EF8002818BFFDF7C4F85A
:1033D00040F20820C2F20000FEF7B4FF08B080BD42
:1033E00010B58EB040F250200021C2F200004FF024
:1033F0008042472344F61F640D91CDE90B110991DA
:10340000CDE90711CDE90511CDE90311CDE9011190
:10341000C0E90023C0E9021401618161FEF750FD9B
:10342000002818BFFDF798F84FF480500A9040F23A
:103430005020C2F200000AA9FEF70AFE002818BFB9
:10344000FDF78AF840F25020C2F20000FFF7ECF8D6
:10345000002818BFFDF780F840F250200024C2F287
:10346000000008A9CDE90844FEF7EAFC002818BFCF
:10347000FDF772F86020CDE9010440F25020C2F25D
:10348000000001A9002203940594FEF7CBFF002859
:1034900018BFFDF761F840F25020C2F2000001A908
:1034A0000422FEF7BFFF002818BFFDF755F840F2D1
:1034B0005020C2F2000001A90822FEF7B3FF002845
:1034C00018BFFDF749F840F25020C2F2000001A9F0
:1034D0000C22FEF7A7FF002818BFFDF73DF840F2C9
:1034E0005020C2F20000FEF72DFF0EB010BD00000C
:1034F00010B58EB040F2982040F200420021C2F296
:103500000000C4F20002452340F2E7340D91CDE9FA
:103510000B110991CDE90711CDE90511CDE9031191
:10352000CDE90111C0E90023C0E902140161816104
:10353000FEF7C6FC002818BFFDF70EF84FF48050C8
:103540000A9040F29820C2F200000AA9FEF780FD1E
:10355000002818BFFDF700F840F29820C2F20000E2
:10356000FFF762F8002818BFFCF7F6FF40F298203A
:103570000024C2F2000008A9CDE90844FEF760FC6F
:10358000002818BFFCF7E8FF6020CDE9010440F2F5
:103590009820C2F2000001A9002203940594FEF7CE
:1035A00041FF002818BFFCF7D7FF40F29820C2F275
:1035B000000001A90422FEF735FF002818BFFCF720
:1035C000CBFF40F29820C2F20000FEF7BBFE0EB027
:1035D00010BD000010B58EB040F2E02040F60002B1
:1035E0000021C2F20000C4F20002472344F61F6427
:1035F0000D91CDE90B11CDE90811C0E90023C0E917
:10360000021401618161FEF75BFC002818BFFCF722
:10361000A3FF4FF480500A9040F2E020C2F2000075
:103620000AA9FEF715FD002818BFFCF795FF40F228
:10363000E020C2F20000FEF7F7FF002818BFFCF7F9
:103640008BFF40F2E0200024C2F2000008A9CDE97F
:103650000844FEF7F5FB002818BFFCF77DFF60204B
:10366000019040F2DC50CDE9020440F2E020C2F2C9
:10367000000001A90022CDE90644CDE90444FEF78B
:10368000D1FE002818BFFCF767FF40F2E020C2F22D
:10369000000001A90422FEF7C5FE002818BFFCF7B0
:1036A0005BFF40F2E020C2F2000001A90822FEF711
:1036B000B9FE002818BFFCF74FFF40F2E020C2F22D
:1036C000000001A90C22FEF7ADFE002818BFFCF790
:1036D00043FF0EB010BD0000FEE7000000F014F83C
:1036E000FCF714FE40F2A204C2F20004012525708A
:1036F00000F098F9657000BF00F052FAFCE7000096
:10370000FEE700007047000010B540F20824C2F246
:10371000000420460021FFF709F820460421FFF7A6
:1037200005F820460821FFF701F820460C21FEF796
:10373000FDFF40F25024C2F2000420460021FEF7B3
:10374000F5FF20460421FEF7F1FF20460821FEF791
:10375000EDFF20460C21BDE81040FEF7E7BF00005A
:1037600040F2B010C2F20000FDF778BD0168826B34
:10377000CB6822F8023B8263C28F013AC287C28FB4
:10378000002A18BF70474A6822F040024A60C18E82
:10379000002908BF00F04EB8704700000168097B9F
:1037A000826B1170816B01318163C18F0139C187D7
:1037B000C18F002918BF704701684A6822F0600273
:1037C0004A60C18E002908BF00F034B8704700007D
:1037D000026B016832F8023BCB600263C28E013A91
:1037E000C286C28E002A18BF70474A6822F0800243
:1037F0004A60C18F002908BF00F01CB87047000064
:10380000016B026809781173016B01310163C18E8C
:103810000139C186C18E002918BF704701684A6806
:1038200022F080024A60C18F002908BF00F002B870
:1038300070470000B0B584B040F20801C2F2000148
:10384000096841F6F112C0F27652A1FB0212044659
:10385000500A642148430390FDF74CF9216805465E
:103860004A6822F0200048600398F8B103980138B4
:103870000390886880071DD40398B8B10398013875
:1038800003908868800715D4039878B103980138AD
:103890000390886880070DD4039838B103980138E5
:1038A000039088688007DFD504E000BF606D40F0BA
:1038B000200060652046022101226423009500F06B
:1038C000E1F938B92046802100226423009500F0F8
:1038D000D9F938B1606D40F020006065606D40F04E
:1038E00020006065A06858B1606DA0B1012120463C
:1038F00084F8511004B0BDE8B040FDF7ADBC00BF86
:10390000002002902068C1680291806802900298AD
:10391000606D0028EAD194F8510001210428204666
:1039200084F8511004D104B0BDE8B040FDF718BED2
:1039300004B0BDE8B040FDF715BE000010B582B080
:1039400004460068416821F060014160FDF7D2F84B
:1039500061688446B1F5827F12D1A068B0F5004F4E
:1039600002D0B0F5806F0BD12168B0F5806F0A6886
:1039700022F040020A6003D12046012102E000BF8C
:103980002046802100226423CDF800C000F07AF99F
:1039900038B1606D40F020006065606D40F020003F
:1039A0006065A06838B9002001902068C168019165
:1039B000806801900198012084F85100606D28B161
:1039C000204602B0BDE81040FDF746BC204602B0DC
:1039D000BDE81040FDF7C4BD406A0021C187C18623
:1039E000FDF73ABC0168826BC96822F8021B82634A
:1039F000C18F0139C187C18F002918BF7047FFF7F8
:103A00009DBF00000168097B826B1170816B0131E1
:103A10008163C18F0139C187C18F002918BF7047E9
:103A2000FFF78CBF2DE9F04389B040F22408C2F2C1
:103A300000084FF0A53041F21806C8F81800C4F28B
:103A40000206706840F6004440F480407060706880
:103A5000002700F48040059005983068C4F2010406
:103A600040F008003060306805AD00F008000590B7
:103A700005984FF42040CDE90507204629460897D0
:103A80000797FCF723FF4FF48050CDE905074FF06F
:103A9000010920462946CDF81C90FCF717FF4FF48A
:103AA0008040CDE90507204629460797FCF70EFF21
:103AB00040F2B015A4F55440C2F200054FF4806105
:103AC000C5E900072846C5E90877AF62C5E90217CE
:103AD000C5E90477AF61FDF749FC2868016841F04A
:103AE0004001016020464FF48051FCF7F7FF88F851
:103AF000000040F22410C2F2000088F80170078034
:103B000040F22010C2F20000076040F22710C2F21B
:103B10000000077040F22610C2F20000077040F269
:103B20001E10C2F200000770242005210022FDF7BC
:103B300061F82420FDF74CF8414641F8647F28469F
:103B40001A220F83C1E90177C1E903774F61FDF7BD
:103B500065FC3068A4F5806440F004003060306893
:103B600001A900F004000190019802200490204671
:103B7000CDE901990397FCF7A9FE20460121012216
:103B8000FCF7B2FF1420FCF78DFE20460121002235
:103B9000FCF7AAFFC8F8189009B0BDE8F083000050
:103BA00070B540F22404C2F20004607940F2B0150E
:103BB000C2F2000560B395F85100012828D1002613
:103BC0006671207927A100F003002AA251F8201085
:103BD00052F82000C5E904102846FDF725FB2846C9
:103BE000FDF7C4FB88B928681A22016841F040013A
:103BF0000160214641F8646F28460E83C1E90166E1
:103C0000C1E903664E61FDF709FCE06A0130E0623C
:103C100095F8510001281FD1002044F8640F54F892
:103C2000481C1A22013144F8481CC4E90100C4E9C7
:103C300003006061208340F2B010C2F20000214610
:103C4000FDF7ECFB002808BF70BDA4F1400001683F
:103C50000131016070BD00BF04F120000168013135
:103C6000016070BD000000000000000002000000C4
:103C70000200000000000000010000000000000041
:103C8000010000002DE9F04381B0089C98461546DC
:103C90000E468146FCF72EFF201A00EB0804FCF7C5
:103CA00029FF40F20801C2F200010968C1F3CB31DB
:103CB00061430091D9F800108A683240921BB2FA31
:103CC00082F2520995423DD0074618F1010031D0E9
:103CD000FCF710FFC01BA04238D2009800990028C2
:103CE000A1F101010091D9F80010896808BF0446CC
:103CF00001EA0600801BB0FA80F040098542E7D156
:103D000020E000BF88683040801BB0FA80F0400996
:103D1000854217D088683040801BB0FA80F0400997
:103D200085420FD088683040801BB0FA80F040098F
:103D3000854207D088683040801BB0FA80F0400987
:103D40008542DFD1002001B0BDE8F083D9E9000150
:103D50004268B1F5827F22F0E00242600BD1D9F8CF
:103D60000810B1F5004F02D0B1F5806F03D10168A2
:103D700021F040010160D9F82810B1F5005F07D1AA
:103D8000016821F400510160016841F400510160B3
:103D9000012089F85100002089F85000032001B06B
:103DA000BDE8F08370470000FCF7AABE7047000032
:103DB00040F2E020C2F20000FEF71CBA406A002187
:103DC000C185C184FEF734BE406A01684A6990F833
:103DD0004130212B2DD112F080022AD00021C18444
:103DE000016851E8031F026821F0C00142E8031393
:103DF000DBB1016851E8031F026821F0C00142E80D
:103E0000031393B1016851E8031F026821F0C00158
:103E100042E803134BB1016851E8031F026821F027
:103E2000C00142E80313002BDAD1202180F84110B1
:103E30000168496990F84220222A40F07D8011F003
:103E4000400179D00021C185016851E8031F026853
:103E500021F4907142E80313BBB3016851E8031FDA
:103E6000026821F4907142E8031373B3016851E8CA
:103E7000031F026821F4907142E803132BB3016819
:103E800051E8031F026821F4907142E80313002BEC
:103E9000DAD11AE0016851E8051F026821F001013A
:103EA00042E80513DBB1016851E8051F026821F003
:103EB000010142E8051393B1016851E8051F02684A
:103EC00021F0010142E805134BB1016851E8051FDB
:103ED000026821F0010142E80513002BDAD1016BE1
:103EE000012924D1016851E8031F026821F0100163
:103EF00042E80313DBB1016851E8031F026821F0B7
:103F0000100142E8031393B1016851E8031F0268EE
:103F100021F0100142E803134BB1016851E8031F7F
:103F2000026821F0100142E80313002BDAD12021AE
:103F300080F8421000210163416C41F0100141649E
:103F4000FEF776BD0168406A0968890600F19F8026
:103F50000021C185016851E8031F026821F48071C6
:103F600042E80313E3B1016851E8031F026821F43A
:103F7000807142E803139BB1016851E8031F026896
:103F800021F4807142E8031353B1016851E8031F23
:103F9000026821F4807142E80313002BDAD100BFDC
:103FA000016851E8051F026821F0010142E805138C
:103FB000BBB3016851E8051F026821F0010142E826
:103FC000051373B3016851E8051F026821F0010170
:103FD00042E805132BB3016851E8051F026821F080
:103FE000010142E80513002BDAD11AE0016851E81B
:103FF000051F026821F0400142E80513DBB10168AA
:1040000051E8051F026821F0400142E8051393B111
:10401000016851E8051F026821F0400142E80513DC
:104020004BB1016851E8051F026821F0400142E8E8
:104030000513002BDAD1202180F84210016B0129F1
:1040400025D100BF016851E8031F026821F010016B
:1040500042E80313DBB1016851E8031F026821F055
:10406000100142E8031393B1016851E8031F02688D
:1040700021F0100142E803134BB1016851E8031F1E
:10408000026821F0100142E80313002BDAD100216D
:104090004163016B012918BFFFF73AB8818DFEF724
:1040A000B7BB0000406A01214163016B012918BFC1
:1040B000FFF730B8818D4908FEF7AABB0168406A56
:1040C0000968890648BFFFF789B80021C18400BF8D
:1040D000016851E8051F026821F0800142E80513DC
:1040E00083B3016851E8051F026821F0800142E8AE
:1040F00005133BB3016851E8051F026821F08001F8
:1041000042E80513F3B1016851E8051F026821F088
:10411000800142E80513002BDAD113E0016851E871
:10412000031F026841F0400142E80313002B08BF5F
:104130007047016851E8031F026841F0400142E8FE
:10414000031393B1016851E8031F026841F0400175
:1041500042E803134BB1016851E8031F026841F0C4
:10416000400142E80313002BD8D17047406AFFF7A3
:1041700037B8000081B090F84210222921D183681D
:104180000246B3F5805F09D152F8281F52F8183C57
:10419000002B63D003685B680AE000BF52F8281F59
:1041A00013B90369002BF5D003685B6803F07F0344
:1041B0000B70116801311160C18D01390A04C1858C
:1041C00002D001B0704700BF0168CA6822F0200227
:1041D000CA60CA6822F48072CA604A6922F0010289
:1041E0004A61202180F8421000214163026B012ABC
:1041F0003CD10163016851E8031F026821F01001FE
:1042000042E80313DBB1016851E8031F026821F0A3
:10421000100142E8031393B1016851E8031F0268DB
:1042200021F0100142E803134BB1016851E8031F6C
:10423000026821F0100142E80313002BDAD1016873
:104240000A68D20606D5002200920A6800924968E0
:1042500000910099818D01B0FEF7DABA02685268C8
:104260006FF35F2221F8022B8162A5E701B0FEF710
:104270004FBF000010B540F22834C2F200042046BF
:10428000FEF7D8FB2046BDE8104000F029B800003A
:1042900070B540F22834C2F200042046FEF7BAFAA4
:1042A00040F22810C2F20000006840F2A405406805
:1042B000C2F20005C0F12801284605F1360600F8D3
:1042C000011BCAB23146FBF72DFF2846FEF78CFFD3
:1042D000204631462822BDE87040FEF763BE00004C
:1042E000006843F60001C4F20101884218BF70471C
:1042F00040F22830C2F2000000680168C90601D40B
:10430000704700BF81B000210091016800914068B2
:104310000090009801B0FFF7BBBF0000FEE700006F
:1043200090B0FCF7FBFB00240120CDE90B44CDE964
:10433000094406900A904FF4E0104FF480310225B2
:104340000F9006A8CDE90714CDE90D51FCF76CFDDF
:1043500020B1EFF3108072B6FEE700BF0F20CDE969
:1043600001054FF48060CDE9040401A80221039403
:10437000FCF77CFC20B1EFF3108072B6FEE700BFC3
:10438000FEF78AFFFFF72CF8FEF7C2FFFFF7B0F841
:10439000FFF720F9FFF7A2F9FEE702E008C8121FB5
:1043A00008C1002AFAD170477047002001E001C11E
:1043B000121F002AFBD1704700000000000000001F
:1043C00001020304060708090102020304050607A7
:1043D00008090A0B0C0D0E0F101000000044000815
:1043E00000000020100000009A430008104400085C
:1043F0001000002068070000AA4300080000000029
:10440000010000001000000000127A00FF00000010
:04000005080000ED02
:00000001FF
